:100000000C9434000C9440000C943E000C943E0080
:100010000C943E000C943E000C943E000C943E0068
:100020000C943E000C943E000C943E000C943E0058
:100030000C943E000C943E000C943E000C943E0048
:100040000C943E000C943E000C943E000C943E0038
:100050000C943E000C943E000C943E000C943E0028
:100060000C943E000C943E0011241FBECFEFD8E04C
:10007000DEBFCDBF0E946A000C948B000C94000080
:100080001F920F920FB60F9211242F933F938F93CD
:100090009F93459884E1409A2FEF31EE94E02150F0
:1000A00030409040E1F700C0000040982FEF31EE63
:1000B00094E0215030409040E1F700C000008150B2
:1000C00051F79F918F913F912F910F900FBE0F90FD
:1000D0001F9018951AB887B1816287B918B881E066
:1000E000809369008DBB7894499BFECF459A2FEF92
:1000F00083E294EF215080409040E1F700C000007F
:1001000045982FEF83E294EF215080409040E1F733
:0A01100000C00000E9CFF894FFCF13
:00000001FF
