:100000000C9434000C9446000C9446000C9446006A
:100010000C9446000C9446000C9446000C94460048
:100020000C9446000C9446000C9446000C94460038
:100030000C9446000C9446000C9448000C94460026
:100040000C9446000C9446000C9446000C94460018
:100050000C9446000C9446000C9446000C94460008
:100060000C9446000C94460011241FBECFEFD8E03C
:10007000DEBFCDBF21E0A0E0B1E001C01D92AC30F9
:10008000B207E1F70E94E6000C94FB000C9400001C
:100090001F920F920FB60F9211242F938F939F935D
:1000A000AF93BF938091080190910901A0910A013B
:1000B000B0910B010196A11DB11D80930801909391
:1000C0000901A0930A01B0930B018091080190915E
:1000D0000901A0910A01B0910B01883E9340A1054E
:1000E000B10509F4589A8091080190910901A091F5
:1000F0000A01B0910B018C349440A105B10589F53A
:100100005898109208011092090110920A01109259
:100110000B018091040190910501A0910601B0911D
:1001200007010196A11DB11D809304019093050163
:10013000A0930601B09307018091040190910501FD
:10014000A0910601B0910701CC97A105B10549F432
:1001500010920401109205011092060110920701FD
:100160005C9A5C9B29C08091000190910101A09153
:100170000201B09103010196A11DB11D8093000100
:1001800090930101A0930201B093030180910001BB
:1001900090910101A0910201B09103018436910573
:1001A000A105B10549F45C9810920001109201017B
:1001B0001092020110920301BF91AF919F918F9114
:1001C0002F910F900FBE0F901F9018958AB18161EB
:1001D0008AB98BB18E7E8BB984B5826084BD85B5BA
:1001E000836085BD89EF87BD80916E0082608093BA
:0A01F0006E007894FFCFF894FFCF63
:107E0000112484B714BE81FFF0D085E080938100F7
:107E100082E08093C00088E18093C10086E0809377
:107E2000C20080E18093C4008EE0C9D0259A86E02C
:107E300020E33CEF91E0309385002093840096BBD3
:107E4000B09BFECF1D9AA8958150A9F7CC24DD24C4
:107E500088248394B5E0AB2EA1E19A2EF3E0BF2EE7
:107E6000A2D0813461F49FD0082FAFD0023811F036
:107E7000013811F484E001C083E08DD089C08234E0
:107E800011F484E103C0853419F485E0A6D080C0E4
:107E9000853579F488D0E82EFF2485D0082F10E0AE
:107EA000102F00270E291F29000F111F8ED06801E7
:107EB0006FC0863521F484E090D080E0DECF843638
:107EC00009F040C070D06FD0082F6DD080E0C81688
:107ED00080E7D80618F4F601B7BEE895C0E0D1E017
:107EE00062D089930C17E1F7F0E0CF16F0E7DF06D8
:107EF00018F0F601B7BEE89568D007B600FCFDCFD4
:107F0000A601A0E0B1E02C9130E011968C91119780
:107F100090E0982F8827822B932B1296FA010C0160
:107F200087BEE89511244E5F5F4FF1E0A038BF0790
:107F300051F7F601A7BEE89507B600FCFDCF97BE46
:107F4000E89526C08437B1F42ED02DD0F82E2BD052
:107F50003CD0F601EF2C8F010F5F1F4F84911BD097
:107F6000EA94F801C1F70894C11CD11CFA94CF0C13
:107F7000D11C0EC0853739F428D08EE10CD085E9AC
:107F80000AD08FE07ACF813511F488E018D01DD067
:107F900080E101D065CF982F8091C00085FFFCCF94
:107FA0009093C60008958091C00087FFFCCF809118
:107FB000C00084FD01C0A8958091C6000895E0E648
:107FC000F0E098E1908380830895EDDF803219F02E
:107FD00088E0F5DFFFCF84E1DECF1F93182FE3DFCA
:107FE0001150E9F7F2DF1F91089580E0E8DFEE27F6
:047FF000FF270994CA
:027FFE00040479
:0400000300007E007B
:00000001FF
