:100000000C9434000C9446000C9446000C9446006A
:100010000C9446000C9446000C9446000C94460048
:100020000C9446000C9446000C9446000C94460038
:100030000C9446000C9446000C9448000C94460026
:100040000C9446000C9446000C9446000C94460018
:100050000C9446000C9446000C9446000C94460008
:100060000C9446000C94460011241FBECFEFD8E03C
:10007000DEBFCDBF21E0A0E0B1E001C01D92AC30F9
:10008000B207E1F70E94E6000C94FB000C9400001C
:100090001F920F920FB60F9211242F938F939F935D
:1000A000AF93BF938091080190910901A0910A013B
:1000B000B0910B010196A11DB11D80930801909391
:1000C0000901A0930A01B0930B018091080190915E
:1000D0000901A0910A01B0910B01883E9340A1054E
:1000E000B10509F4589A8091080190910901A091F5
:1000F0000A01B0910B018C349440A105B10589F53A
:100100005898109208011092090110920A01109259
:100110000B018091040190910501A0910601B0911D
:1001200007010196A11DB11D809304019093050163
:10013000A0930601B09307018091040190910501FD
:10014000A0910601B0910701CC97A105B10549F432
:1001500010920401109205011092060110920701FD
:100160005C9A5C9B29C08091000190910101A09153
:100170000201B09103010196A11DB11D8093000100
:1001800090930101A0930201B093030180910001BB
:1001900090910101A0910201B09103018436910573
:1001A000A105B10549F45C9810920001109201017B
:1001B0001092020110920301BF91AF919F918F9114
:1001C0002F910F900FBE0F901F9018958AB18161EB
:1001D0008AB98BB18E7E8BB984B5826084BD85B5BA
:1001E000836085BD89EF87BD80916E0082608093BA
:0A01F0006E007894FFCFF894FFCF63
:00000001FF
