:100000000C9434000C9460000C9448000C9446004E
:100010000C9446000C9446000C9446000C94460048
:100020000C9446000C9446000C9446000C94460038
:100030000C9446000C9446000C9446000C94460028
:100040000C9446000C9446000C9446000C94460018
:100050000C9446000C9446000C9446000C94460008
:100060000C9446000C94460011241FBECFEFD8E03C
:10007000DEBFCDBF21E0A0E0B1E001C01D92A13004
:10008000B207E1F70E947B000C9492000C940000F0
:100090001F920F920FB60F9211248F93809100013F
:1000A000882321F0E8981092000104C0E89A81E0CA
:1000B000809300018F910F900FBE0F901F901895A5
:1000C0001F920F920FB60F9211242F938F939F932D
:1000D0005C9A2FEF83ED90E3215080409040E1F750
:1000E00000C000005C989F918F912F910F900FBEE0
:1000F0000F901F90189580E38AB91BB88EE080930B
:10010000690082E08DBB789490E28BB189278BB92E
:100110002FEF39E688E1215030408040E1F700C000
:080120000000F3CFF894FFCFBB
:00000001FF
