:100000000C9434000C943E000C943E000C943E0082
:100010000C943E000C943E000C943E000C943E0068
:100020000C943E000C943E000C943E000C943E0058
:100030000C943E000C943E000C943E000C943E0048
:100040000C943E000C943E000C943E000C943E0038
:100050000C943E000C943E000C943E000C943E0028
:100060000C943E000C943E0011241FBECFEFD8E04C
:10007000DEBFCDBF0E9440000C9469000C940000CC
:1000800087B1826287B9259A1AB880E292E088B96E
:1000900015B82FEF37EA41E6215030404040E1F7F4
:1000A00000C0000098B915B82FEF33ED40E32150A0
:1000B00030404040E1F700C0000018B885B92FEF8C
:1000C00037EA41E6215030404040E1F700C00000EF
:0600D000DECFF894FFCF23
:00000001FF
