:100000000C9434000C943E000C943E000C943E0082
:100010000C943E000C943E000C943E000C943E0068
:100020000C943E000C943E000C943E000C943E0058
:100030000C943E000C943E000C943E000C943E0048
:100040000C943E000C943E000C943E000C943E0038
:100050000C943E000C943E000C943E000C943E0028
:100060000C943E000C943E0011241FBECFEFD8E04C
:10007000DEBFCDBF0E9440000C9467000C940000CE
:100080001AB882E287B980E284B992E015B888B9DB
:100090002FEF39E648E1215030404040E1F700C001
:1000A000000098B92FEF39E648E121503040404038
:1000B000E1F700C0000018B885B92FEF39E648E134
:1000C000215030404040E1F700C00000DFCFF894FD
:0200D000FFCF60
:00000001FF
