:100000000C9434000C943E000C943E000C943E0082
:100010000C943E000C943E000C943E000C943E0068
:100020000C943E000C943E000C943E000C943E0058
:100030000C943E000C943E000C943E000C943E0048
:100040000C943E000C943E000C943E000C943E0038
:100050000C943E000C943E000C943E000C943E0028
:100060000C943E000C943E0011241FBECFEFD8E04C
:10007000DEBFCDBF0E9440000C9403010C94000031
:100080001AB814B88FEF87B98BB181618BB918B8E2
:10009000489912C0439A429A419A409A2FEF85EAB2
:1000A0009EE0215080409040E1F700C0000043985E
:1000B0004298419840989DC04C9923C0439A429AD7
:1000C0002FEF8FE097E2215080409040E1F700C091
:1000D0000000439842982FEF8FE097E22150804034
:1000E0009040E1F700C00000419A409A2FEF8FE066
:1000F00097E2215080409040E1F700C00000419815
:1001000048C0189948C0439A2FEF85EA9EE02150D5
:1001100080409040E1F700C0000043982FEF85EA4F
:100120009EE0215080409040E1F700C00000429ADC
:100130002FEF85EA9EE0215080409040E1F700C01B
:10014000000042982FEF85EA9EE0215080409040C9
:10015000E1F700C00000419A2FEF85EA9EE02150B0
:1001600080409040E1F700C0000041982FEF85EA01
:100170009EE0215080409040E1F700C00000409A8E
:100180002FEF85EA9EE0215080409040E1F700C0CB
:10019000000040987DCF19997BCF439A429A419AAB
:1001A000409A2FEF85EA9EE0215080409040E1F791
:1001B00000C0000040982FEF85EA9EE0215080406B
:1001C0009040E1F700C0000041982FEF85EA9EE0E3
:1001D000215080409040E1F700C0000042982FEF8E
:1001E00085EA9EE0215080409040E1F700C0000089
:1001F00043982FEF85EA9EE0215080409040E1F740
:0A02000000C0000045CFF894FFCFC6
:00000001FF
