:100000000C9434000C943E000C943E000C943E0082
:100010000C943E000C943E000C943E000C943E0068
:100020000C943E000C943E000C943E000C943E0058
:100030000C943E000C943E000C943E000C943E0048
:100040000C943E000C943E000C943E000C943E0038
:100050000C943E000C943E000C943E000C943E0028
:100060000C943E000C943E0011241FBECFEFD8E04C
:10007000DEBFCDBF0E9440000C949F000C94000096
:100080002AB1287F2AB924B1276024B92BB127606F
:100090002BB9E1E0DEE1F2E3C6E429B129B129B1EF
:1000A00039B131703E2729B126952E27822F8170D4
:1000B00090E029B1269526952E27622F617070E079
:1000C000A32FB0E0F89FA001F99F500D11248A01E1
:1000D000D39F000D111D11249801C69FA001C79F39
:1000E000500D1124240F351F2B353105C4F0AB2BD7
:1000F00039F4009719F460E070E002C080E090E00D
:10010000F89F9001F99F300D1124C69FA001C79F51
:10011000500D1124240F351FA0E0B0E0E5CFAB2B2C
:1001200011F0289A01C02898892B11F0299A01C052
:100130002998672B11F02A9AB0CF2A98AECFF8945D
:02014000FFCFEF
:00000001FF
