:100000000C9434000C944B000C9440000C943E0073
:100010000C943E000C943E000C943E000C943E0068
:100020000C943E000C943E000C943E000C943E0058
:100030000C943E000C943E000C943E000C943E0048
:100040000C943E000C943E000C943E000C943E0038
:100050000C943E000C943E000C943E000C943E0028
:100060000C943E000C943E0011241FBECFEFD8E04C
:10007000DEBFCDBF0E9456000C9468000C940000B7
:100080001F920F920FB60F921124289A0F900FBE55
:100090000F901F9018951F920F920FB60F92112478
:1000A00028980F900FBE0F901F9018958AB1837FEC
:1000B0008AB9209A80916900826080936900E89AE9
:1000C00080916900886080936900E99A7894FFCFF5
:0400D000F894FFCFD2
:00000001FF
