:100000000C9434000C943E000C943E000C943E0082
:100010000C943E000C9440000C943E000C943E0066
:100020000C943E000C943E000C943E000C943E0058
:100030000C943E000C943E000C943E000C943E0048
:100040000C943E000C943E000C943E000C943E0038
:100050000C943E000C943E000C943E000C943E0028
:100060000C943E000C943E0011241FBECFEFD8E04C
:10007000DEBFCDBF0E9452000C946A000C940000B9
:100080001F920F920FB60F9211248F93499904C0BB
:1000900087B5865E87BD87B58F910F900FBE0F9095
:1000A0001F901895569A599A8091680084608093A1
:1000B000680080916D00826080936D0084B58068D7
:1000C00084BD84B5836084BD85B5826085BD17BC61
:0800D0007894FFCFF894FFCFF4
:00000001FF
