:100000000C9434000C9446000C9446000C9446006A
:100010000C9446000C9446000C9446000C94460048
:100020000C9446000C9446000C9446000C94460038
:100030000C9446000C9446000C9448000C94460026
:100040000C9446000C9446000C9446000C94460018
:100050000C9446000C9446000C9446000C94460008
:100060000C9446000C94460011241FBECFEFD8E03C
:10007000DEBFCDBF21E0A0E0B1E001C01D92A43001
:10008000B207E1F70E9488000C949A000C940000DB
:100090001F920F920FB60F9211242F938F939F935D
:1000A000AF93BF938091000190910101A091020153
:1000B000B09103010196A11DB11D809300019093A1
:1000C0000101A0930201B09303018091000190917E
:1000D0000101A0910201B0910301803D9740A1056B
:1000E000B10564F01092000110920101109202011A
:1000F000109203019BB181E089278BB9BF91AF9129
:100100009F918F912F910F900FBE0F901F90189578
:100110008FEF8AB9589A84B5826084BD85B58260B4
:1001200085BD85E987BD80916E00826080936E00F9
:080130007894FFCFF894FFCF93
:00000001FF
